:1000000001308A00D8290000FF00030E8301A100FF
:100010000A08A0008A010408A2007708A300780853
:10002000A4007908A5007A08A600831383120B1E8A
:100030001B288B182C28220884002308F70024088A
:10004000F8002508F9002608FA0020088A00210E89
:100050008300FF0E7F0E09008A110A128C284A18AD
:10006000332808123428081603104A0C0139031DDE
:100070003B2888123C2888164A0CF700F70C3F30C2
:10008000F70577080139031D472808134828081782
:100090004A0CF700F70CF70C1F30F7057708013909
:1000A000031D5428881355288817080009150530A2
:1000B000F700F70B59285C2809116330F700F70B9C
:1000C0005F2862280800480EC9000F30C90549089A
:1000D000CA002F2056204808CA002F2056200800AA
:1000E0004830840083130008031984280730F8007F
:1000F000F701F70B7928F80B7828C730F700F70BD2
:100100007F280000800B762808000130C80063209B
:100110000A30C8007020080085208B108A110A124E
:100120001B28C422CD272027C7205410CE23CF2040
:100130004900C2306E266937E825E9326E17563716
:100140000001C2306E266937E825E9326E1756374E
:100150000001CD346E34C8304739EF3A7000831651
:1001600008128812081388130911091089108312C4
:10017000A7018B1BA7178B13CA012F20A71B8B1757
:10018000A7018B1BA7178B131430C8007020A71B67
:100190008B1709108910A7018B1BA7178B1303302E
:1001A000CA002F20A71B8B175620A7018B1BA71750
:1001B0008B130530C8007020A71B8B175620C73043
:1001C000F700F70BE128E4285620A7018B1BA7179F
:1001D0008B130230CA002F20A71B8B175620A701B4
:1001E0008B1BA7178B132830C8006320A71B8B1706
:1001F000A7018B1BA7178B130C30C8006320A71B0C
:100200008B17A7018B1BA7178B130630C800632021
:10021000A71B8B17A7018B1BA7178B130130C800D7
:100220006320A71B8B178A110A12E9292908840069
:1002300083132A18831742088000840A8001A90AC0
:100240000319AA0A0800831603178C170C14000060
:10025000000083120C087F39031967290313BF00BC
:1002600003170D080313C00003170F080313C10081
:100270003F08C2001621400803178D0003134108F0
:1002800003178F0083168C170C14000000008312D4
:100290000C0D0E0D7F39031967290313BF000317D7
:1002A0000D080313C00003170F080313C1003F0814
:1002B000C2001621400803178D00031341080317DD
:1002C0008F008D0A03198F0A0313232903170313C1
:1002D00008000914A7018B1BA7178B134308C8003C
:1002E0006320A71B8B17091008004008FA003F087D
:1002F000840083137A188317800803198E29400815
:10030000FA003F0884008313401883170008C100D7
:10031000C3006921BF0A0319C00A75290800C00873
:10032000031D962980303F07C1009929C0303F073F
:10033000C100A7018B1BA7178B130130C8007020C9
:10034000A71B8B17A7018B1BA7178B134108C8008E
:100350006320A71B8B17A7018B1BA7178B130A30D2
:10036000C8007020A71B8B1708004008FA003F0840
:10037000840083137A18831780080319D72940084B
:10038000FA003F0884008313401883170008C20056
:10039000C3006921BF0A0319C00AA7018B1BA71755
:1003A0008B134108C8007020A71B8B17B5290800C4
:1003B000840183131F308305FF30A800AA01A9011F
:1003C00083161F149F141F159F1107309C00831262
:1003D000AF28AA012B30A900913003178D000030FF
:1003E0008F0003132321A7018B1BA7178B130A3040
:1003F000C8007020A71B8B17C0012B30BF007521D0
:100400000430BF00A7018B1BA7178B13FA30C8005D
:100410007020A71B8B17BF0B022AA7018B1BA717E6
:100420008B138520A71B8B17AA012B30A9009930AD
:1004300003178D0000308F00031323210130BF000C
:10044000C0018F21C0012B30BF007521C0308B044B
:100450008316011383120B160130BF00C0018F21D8
:10046000AA012B30A900A13003178D0000308F00A6
:1004700003132321C0012B30BF006430C100B5211C
:100480000230BF000130C0008F21AA012B30A9002B
:10049000A93003178D0000308F0003132321C00102
:1004A0002B30BF006430C100B521A7018B1BA717FB
:0C04B0008B138520A71B8B172C2A6300E0
:02400E003A3F37
:00000001FF
;PIC16F877A
;CRC=B63E  CREATED="06-Oct-12 09:34"
