:1000000002308A009F2A0000FF00030E8301A10036
:100010000A08A0008A010408A2007708A300780853
:10002000A4007908A5007A08A60003170D08031399
:10003000A70003170F080313A80003170C080313E6
:10004000A90003170E080313AA00831383120B1EC3
:100050002B288B184C28220884002308F70024083A
:10006000F8002508F9002608FA00270803178D0074
:100070000313280803178F000313290803178C00A4
:1000800003132A0803178E00031320088A00210E89
:100090008300FF0E7F0E09008A110A12AC284F1848
:1000A000532808125428081603104F0C0139031D59
:1000B0005B2888125C2888164F0CF700F70C3F303D
:1000C000F70577080139031D672808136828081702
:1000D0004F0CF700F70CF70C1F30F70577080139C4
:1000E000031D742888137528881708000915053022
:1000F000F700F70B79287C2809116330F700F70B1C
:100100007F28822808004D0ECE000F30CE054E0805
:10011000CF004F2076204D08CF004F2076200800DA
:100120004D308400831300080319A4280730F80019
:10013000F701F70B9928F80B9828C730F700F70B51
:100140009F280000800B962808000130CD008320F6
:100150000A30CD0090200800AD01A5208B108A1137
:100160000A122B28D422532A2027C7205410CE232A
:10017000CF2049002022E5363A1025196400831665
:1001800008128812081388130911091089108312A4
:10019000AB018B1BAB178B13CF014F20AB1B8B1706
:1001A000AB018B1BAB178B131430CD009020AB1B16
:1001B0008B1709108910AB018B1BAB178B13033006
:1001C000CF004F20AB1B8B177620AB018B1BAB17DF
:1001D0008B130530CD009020AB1B8B177620C730DA
:1001E000F700F70BF128F4287620AB018B1BAB1737
:1001F0008B130230CF004F20AB1B8B177620AB0147
:100200008B1BAB178B132830CD008320AB1B8B17B8
:10021000AB018B1BAB178B130C30CD008320AB1BBA
:100220008B17AB018B1BAB178B130630CD008320D4
:10023000AB1B8B17AB018B1BAB178B130130CD00A6
:100240008320AB1B8B178A110A12B12A2E08840057
:1002500083132F1883174A088000840A8001AE0A8E
:100260000319AF0A08000B08C4008B138316031789
:100270008C170C140000000083120313C41B8B178F
:1002800003170C087F39031987290313C4000317C8
:100290000D080313C50003170F080313C600440815
:1002A000CA002621450803178D00031346080317CB
:1002B0008F0003130B08C7008B13831603178C17CB
:1002C0000C140000000083120313C71B8B170317C5
:1002D0000C0D0E0D7F39031987290313C400031772
:1002E0000D080313C50003170F080313C6004408C5
:1002F000CA002621450803178D000313460803177B
:100300008F008D0A03198F0A031333290317031370
:100310008A110A12BB2AC508031D9229803044079E
:10032000C6009529C0304407C600AB018B1BAB1734
:100330008B130130CD009020AB1B8B17AB018B1BB7
:10034000AB178B134608CD008320AB1B8B17AB017B
:100350008B1BAB178B130A30CD009020AB1B8B1778
:100360008A110A12BF2A4508FA0044088400831340
:100370007A18831780080319D7294508FA0044081A
:10038000840083137A1883170008C6004608C70044
:100390000914AB018B1BAB178B134708CD008320CF
:1003A000AB1B8B170910C40A0319C50AB32908002F
:1003B0000B08C5008B13831603178C170C14000051
:1003C000000083120313C51B8B1703180F2A031792
:1003D0000C087F390313C50003170D080313C6006B
:1003E00003170F080313C7004508CA002621460853
:1003F00003178D000313470803178F0003130B081F
:10040000C8008B13831603178C170C140000000010
:1004100083120313C81B8B17C40B0F2A2E2A031732
:100420000C0D0E0D7F390313C50003170D080313C0
:10043000C60003170F080313C7004508CA0026218A
:10044000460803178D000313470803178F008D0A12
:1004500003198F0A03100313C40BD8298A110A1237
:10046000E82A4B08F8014A020318392A4A08F7001B
:10047000452AF7010830CC00CA0DF70D4B0877026A
:100480000318F700F80DCC0B3C2A08002030451E5D
:100490003030C6004408F700C41F562AF709F70A8F
:1004A0007708C4002D30C600C51745144408CA009B
:1004B0006430CB0031227708C40030307807C700A1
:1004C0004408CA000A30CB00312230307707C90017
:1004D00030307807C8004608F7003030470203196B
:1004E000752AC514C51B4515892A4608C700203042
:1004F000C600303048020319812A4514C51BC514B3
:10050000892A031D4514031D892A4708C800203085
:10051000C7004519902AC518932A4518962A992A82
:100520004608CA0026214708CA0026214808CA00F2
:1005300026214908CA0026218A110A12ED2A030839
:100540001F398300FF30AC00AD01AF01AE0183164F
:100550001F149F141F159F1107309C0083138312D3
:10056000BF28AF013030AE00B23003178D0000302D
:100570008F00031333290130C400C5018B29C50145
:100580003030C400B321AB018B1BAB178B13A520FC
:10059000AB1B8B17C0308B048316011383120B1611
:1005A0002D08633C031CFC2AAB018B1BAB178B1380
:1005B000A520AB1B8B17AF013030AE00BA3003174C
:1005C0008D0000308F00031006300313C400D829BB
:1005D0002D08C4001130C500462AC5013030C400C2
:1005E000B321AB018B1BAB178B13C830CD00902010
:0C05F000AB1B8B17AD0AD02AD02A630089
:02400E003A3F37
:00000001FF
;PIC16F877A
;CRC=AD70  CREATED="24-Apr-22 09:58"
