:1000000001308A001F290000D422532A2028D72635
:1000100000003D180D2808120E28081603103D0C8C
:100020000139031D15288812162888163D0CF70083
:10003000F70C3F30F70577080139031D2128081315
:10004000222808173D0CF700F70CF70C1F30F705B6
:1000500077080139031D2E2888132F2888170800D8
:100060003830840083130008031944280730F8004F
:10007000F701F70B3928F80B3828C730F700F70BD2
:100080003F280000800B3628080009150530F700CE
:10009000F70B48284B2809116330F700F70B4E285F
:1000A000512808003B0EBC000F30BC053C08BD00C9
:1000B000092045203B08BD00092045200800831683
:1000C0000812881208138813091109108910831265
:1000D000BD0109201430B800302009108910033008
:1000E000BD00092045200530B80030204520C7302C
:1000F000F700F70B79287C2845200230BD00092045
:1001000045202830BB0052200C30BB005220063066
:10011000BB0052200130BB0052208A110A12302944
:10012000210884008313221883173A088000840A68
:100130008001A10A0319A20A08000B08B7008B135B
:10014000831603178C170C1400000000831203138E
:10015000B71B8B1703170C087F390319F1280313FA
:10016000B70003170D080313B80003170F08031394
:10017000B9003708BA009020380803178D00031320
:10018000390803178F0003130B08BA008B1383166B
:1001900003178C170C140000000083120313BA1B02
:1001A0008B1703170C0D0E0D7F390319F12803135C
:1001B000B70003170D080313B80003170F08031344
:1001C000B9003708BA009020380803178D000313D0
:1001D000390803178F008D0A03198F0A03139D280E
:1001E000031703138A110A123A293808FA0037084C
:1001F000840083137A188317800803191329380899
:10020000FA003708840083137A1883170008B900AE
:100210003908BA0009143A08BB0052200910B70A7D
:100220000319B80AF5288A110A123E290130BB00C9
:1002300052200A30B80030208A110A1246290308D9
:100240001F398300FF30A000A201A10183161F14F3
:100250009F141F159F1107309C00831383125F2882
:10026000A2012330A100043003178D0000308F005D
:1002700003139D28B8012330B700F5280430B700D8
:10028000FA30B8003020B70B402916290030F800AA
:10029000043892003B30831692008312201120080C
:1002A00083168700831207110C30970048309500A1
:0402B0005829630066
:02400E003A3F37
:00000001FF
;PIC16F877A
;CRC=786C  CREATED="24-Apr-22 10:39"
