:1000000000308A001A280000223084008313000880
:10001000031917280630F800F701F70B0D28F80B25
:100020000C287B30F700F70B1328800B0A288A1165
:100030000A12342803081F39830083161F149F14E3
:100040001F159F1107309C00831383122110831604
:100050000810081083120810831685168312851A5B
:1000600048280A30A2000428831685168312851AB0
:1000700043280130A10621183F2808104028081401
:10008000831608108312831685168312851E432853
:040090002C286300B5
:02400E00323F3F
:00000001FF
;PIC16F877A
;CRC=B05E  CREATED="23-Apr-22 17:10"
