:1000000004308A00922C0000FF00030E8301A1003F
:100010000A08A0008A010408A2007708A300780853
:10002000A4007908A5007A08A600831383128C30F7
:100030008400001C1D280C1834288D308400001CFE
:1000400023280D183728220884002308F7002408E5
:10005000F8002508F9002608FA0020088A00210E79
:100060008300FF0E7F0E09008A110A1270288A1180
:100070000A123A281B082A07E6002B08E7001C088A
:1000800003181C0FE7072C08E800003003180130A4
:10009000E8072D08E900003003180130E9072808B7
:1000A0006602AE006708AF002908031C290FAF02E3
:1000B0006808B0000030031C0130B0026908B100CC
:1000C0000030031C0130B1021C08A9001B08A80065
:1000D000AD01AC01AB01AA010D108A110A1223284F
:1000E000FF30AA07031CAB07003003180130AC0730
:1000F000003003180130AD070C108A110A122328B2
:100100004927D02A5410C320502A55294500C2300F
:100110006E266937E825E9326E1756370000D4306D
:100120006E10D3373D10251BAE18660052189A2862
:1001300008129B2808160310520C0139031DA2282F
:100140008812A3288816520CF700F70C3F30F705E9
:1001500077080139031DAE280813AF280817520C81
:10016000F700F70CF70C1F30F70577080139031D6E
:10017000BB288813BC28881708004F3084008313DD
:1001800000080319D1280730F800F701F70BC6283B
:10019000F80BC528C730F700F70BCC280000800B00
:1001A000C328080009150530F700F70BD528D82813
:1001B00009116330F700F70BDB28DE280800500E2A
:1001C000D1000F30D1055108D2009620D22050081E
:1001D000D2009620D2200800831608128812081335
:1001E00088130911091089108312D2019620143046
:1001F000CF00BD20091089100330D2009620D220F4
:100200000530CF00BD20D220C730F700F70B0629FC
:100210000929D2200230D2009620D2202830D000E6
:10022000DF200C30D000DF200630D000DF2001308E
:10023000D000DF208A110A12AC2C3208840083130C
:100240003318831759088000840A8001B20A031901
:10025000B30A0800831603178C170C140000000063
:1002600083120C087F3903196E290313CC0003177E
:100270000D080313CD0003170F080313CE004C081D
:10028000D9001D214D0803178D0003134E080317D5
:100290008F0083168C170C140000000083120C0DC5
:1002A0000E0D7F3903196E290313CC0003170D08B7
:1002B0000313CD0003170F080313CE004C08D90019
:1002C0001D214D0803178D0003134E0803178F00DF
:1002D0008D0A03198F0A03132A2903170313080031
:1002E0004D08FA004C08840083137A18831780089D
:1002F00003198E294D08FA004C08840083137A18DC
:1003000083170008CE004E08CF0009144F08D00014
:10031000DF200910CC0A0319CD0A7029080001302A
:10032000D000DF200A30CF00BD208A110A12C52C70
:10033000CD08031D9F2980304C07CE00A229C03074
:100340004C07CE000130CF00BD204E08D000DF208A
:100350000130CF00BD2008008530900083160C14BA
:1003600083128A110A12D72CB630F700FA01F9016C
:10037000F8014C084D044E044F04031DC129F70138
:10038000CE290310F81BCD29CC0DCD0DCE0DCF0DF0
:10039000FA0DF90DF80DF70BC129F8138A110A129D
:1003A000EA2C4C080319962AD80050080319962AFB
:1003B000D802031CE0297F30D8070318962AE629C3
:1003C0008130D802031C962A0319962A5808F70090
:1003D000F801F901FA01D7014D08D600D6174E08E9
:1003E000D5004F08D4001930D8005308D4020318A0
:1003F000092A0130D5020318092AD6020318092A4E
:10040000D7020318092AD70AD60AD50A5308D407EF
:100410003B2A5208D5020318242A0130D6020318B9
:10042000242AD7020318242AD70AD60A5208D50745
:100430005308D407031C3B2AD50A031D3B2AD60ABE
:10044000031D3B2AD70A3B2A51088038D6020318DD
:100450003A2A0130D70203183A2AD70A51088038BD
:10046000D6075208D507031C182AD60A031D182AD6
:10047000D70A182A7A14D80B3E2A492A0310D40D19
:10048000D50DD60DD70D0310FA0DF90DF80DD90DB8
:10049000F529591C512A0310F80CF90CFA0CD90C47
:1004A000542AF7030319962AD91B7D2A0310D40D69
:1004B000D50DD60DD70D5308D4020318692A013083
:1004C000D5020318692AD6020318692AD702031C29
:1004D0008C2A5208D5020318742A0130D602031858
:1004E000742AD702031C8C2A51088038D6020318BC
:1004F0007D2A0130D702031C8C2AFA0A031D8C2A9C
:10050000F90A031D8C2AF80A031D8C2AF70A03191D
:10051000962AF80CF90CFA0C4D08D8005108D806A8
:10052000D81F942AF8179A2AF8139A2AF701F80183
:10053000F901FA018A110A12FA2C831603178C1793
:100540000C14000000000318CC2A83120C087F3919
:100550000313CD0003170D080313CE0003170F0874
:100560000313CF004D08D9001D214E0803178D003D
:1005700003134F0803178F0083168C170C14000009
:10058000000083120313CC0BC62AC92A8316031753
:10059000CC2AEB2A8316031783120C0D0E0D7F391C
:1005A0000313CD0003170D080313CE0003170F0824
:1005B0000313CF004D08D9001D214E0803178D00ED
:1005C00003134F0803178F008D0A03198F0A0310B6
:1005D0000313CC0B9D2A8A110A12132D8318F32AB8
:1005E000613084008313F701F801F901FA01E10198
:1005F000E201E301E40160085F045E045D040319A5
:10060000312B2030E5000310D90DDA0DDB0DDC0DA8
:10061000E10DE20DE30DE40D60086402031D1A2BE9
:100620005F086302031D1A2B5E086202031D1A2B6A
:100630005D086102031C2B2B5D08E1025E08031CB0
:100640005E0FE2025F08031C5F0FE3026008031CF9
:10065000600FE4020314F70DF80DF90DFA0DE50B28
:10066000032B61088000840A62088000840A630802
:100670008000840A6408800008000408D100500843
:10068000D3000319CF2B4F08DC004E08DB004D08C8
:10069000DA004C08D900E001DF012030DE008230B2
:1006A000DD0059080319C12BE1005D080319C12BB6
:1006B000E1070318622B7F30E102031CC12B0319F1
:1006C000C12B662B8130E1070318C12B6108F700AD
:1006D000F801F901FA015A08E500E5175B08E400A2
:1006E0005C08E3001830E100E201631C8F2B600816
:1006F000FA07031C812BF90A031D812BF80A031941
:10070000E2175F08F907031C882BF80A0319E217A0
:100710005E08DB00DB175B08F8070318E217E20D41
:10072000F80CF90CFA0CE50CE40CE30C0310E10BEB
:10073000742B0130F7070318C12BF81BA62BE50D0E
:10074000FA0DF90DF80DF7030319C12BE51FB72BAF
:10075000FA0A031DB72BF90A031DB72BF80A031D6C
:10076000B72BF80CF90CFA0CF70A0319C12B5A082D
:10077000E2005E08E206E21FBF2BF817C52BF81354
:10078000C52BF701F801F901FA017A08CF007908C1
:10079000CE007808CD007708CC00D30B432B4F0850
:1007A000DC004E08DB004D08DA004C08D90059087F
:1007B000B63CD900FA015A08DD00DA170310DA0C4A
:1007C000DB0CDC0CFA0CF90CF80CF70CD90BDE2B5B
:1007D000DD1FF52BF709F809F909FA09F70A0319DA
:1007E000F80A0319F90A0319FA0A7A08CF007908F6
:1007F000CE007808CD007708CC00CF1F0C2CD10399
:10080000D116CC09CD09CE09CF09CC0A0319CD0ADE
:100810000319CE0A0319CF0A3B30D8009A30D7000B
:10082000CA30D600D5010A30D30050080319D10AC6
:1008300083144C30840083134F08DC004E08DB0027
:100840004D08DA004C08D9005808E0005708DF00CE
:100850005608DE005508DD00EE227808F708031D73
:10086000442C500A53020319442C51080319462CF6
:100870000F39530203193E2C0318762CD11B762C0A
:10088000511B462C2030722C2030D105D11E542C07
:10089000D1125008031DD1037708D1002D30D900A3
:1008A0001D215108F700D10150085302031D622C8D
:1008B0007708D1002E30D9001D215108F7002030D3
:1008C000D10500303030D11E722CD1125008031DDA
:1008D000D1037708D1002D30D9001D215108F70030
:1008E000D1013030F7077708D9001D21831058084F
:1008F000DC005708DB005608DA005508D900E00193
:10090000DF01DE010A30DD00EE227A08D800790826
:10091000D7007808D6007708D500D30B182C8A1199
:100920000A12202D840183131F3083052710A9018B
:10093000A801AD01AC01AB01AA01B101B001AF0149
:10094000AE01B301B20183161F149F141F159F112E
:1009500007309C008312EC28B3013430B2008030A1
:1009600003178D0000308F0003132A210A30CF00B7
:10097000BD20CD013430CC0070210430CC00FA30E1
:10098000CF00BD20CC0BBF2C8F29B3013430B20077
:10099000873003178D0000308F0003132A21CC010C
:1009A000CD019821CD013430CC007021AC298F01CC
:1009B0008E01C0308B0483160D1483129D01043008
:1009C0009D003108CF003008CE002F08CD002E0842
:1009D000CC00B429CF011B30CE003730CD0095308C
:1009E000CC007A08D3007908D2007808D1007708C3
:1009F000D000D1297A08CB007908CA007808C9004C
:100A00007708C800CC010130CD009821B301343003
:100A1000B2008F3003178D0000308F0003100830B4
:100A20000313CC009D2A053084004B08CF004A08F0
:100A3000CE004908CD004808CC000130D0003D2B45
:0C0A4000CD013430CC007021E12C6300AB
:02400E003A3F37
:00000001FF
;PIC16F877A
;CRC=FD8D  CREATED="06-Oct-12 00:29"
