:1000000003308A00282B0000FF00030E8301A100AB
:100010000A08A0008A010408A2007708A300780853
:10002000A4007908A5007A08A60003170D08031399
:10003000A70003170F080313A80003170C080313E6
:10004000A90003170E080313AA00831383128B1E43
:100050002B280B199C288B1D2F280B189F280B1E53
:1000600033288B18A2288C308400001F39280C1BE1
:10007000A5288C308400001E3F280C1AA8288C303C
:100080008400801E45288C1AAB288C308400001C0C
:100090004B280C18AE288C308400801C51288C18FA
:1000A000B1288C308400001D57280C19B4288D30DD
:1000B0008400001C5D280D18B7288C308400801D3A
:1000C00063288C19BA288C308400801F69288C1B07
:1000D000BD288D308400801D6F288D19C0288D307B
:1000E0008400001E75280D1AC3288D308400001F5F
:1000F0007B280D1BC628220884002308F70024084B
:10010000F8002508F9002608FA00270803178D00D3
:100110000313280803178F000313290803178C0003
:1001200003132A0803178E00031320088A00210EE8
:100130008300FF0E7F0E09008A110A12D1288A114E
:100140000A12CD288A110A12C9288A110A12F32824
:100150008A110A12FF288A110A1203298A110A1227
:10016000EB288A110A12EF288A110A12F7288A113D
:100170000A12FB288A110A1207298A110A120B296E
:100180008A110A120F298A110A1213298A110A12D6
:1001900017298B108A110A127B280B108A110A1258
:1001A0007B2802308100AC0A2C082E3C031DE72876
:1001B0000B138B138B1BD928AC012D08633C031D3B
:1001C000E328AD01E428AD0A2B14C0308B040B11D9
:1001D0008A110A127B280C108A110A127B288C10B3
:1001E0008A110A127B280C138A110A127B280C111F
:1001F0008A110A127B280D108A110A127B280C1210
:100200008A110A127B288C128A110A127B288C11FF
:100210008A110A127B288C138A110A127B288D11ED
:100220008A110A127B280D128A110A127B280D13DB
:100230008A110A127B282010202AC5295410D424A0
:10024000CD225200D434ED32721DA012B23A000019
:100250004A182C2908122D29081683160812031093
:1002600083124A0C0139031D372988123829881650
:100270008316881283124A0CF700F70C3F30F705FB
:1002800077080139031D46290813472908178316E3
:10029000081383124A0CF700F70CF70C1F30F70510
:1002A00077080139031D56298813572988178316A3
:1002B0008813831208004730840083130008031951
:1002C0006E290630F800F701F70B6429F80B632953
:1002D0007B30F700F70B6A29800B61290800831631
:1002E0000911831209150430F700F70B75297829D5
:1002F00083160911831209115230F700F70B7E297A
:10030000812900000800480EC9000F30C9054908BE
:10031000CA0028216F214808CA0028216F2108003F
:1003200083160812881208138813091109108910FE
:100330008312CA0128211430C7005B2183160910DB
:100340008312091083168910831289100330CA00A2
:1003500028216F210530C7005B216F21A630F700EF
:10036000F70BB02900006F210230CA0028216F214D
:100370002830C80083210C30C80083210630C80013
:1003800083210130C80083218A110A12382B2E08DC
:10039000840083132F18831748088000840A800183
:1003A000AE0A0319AF0A08000B08C4008B138316AA
:1003B00003178C170C140000000083120313C41BD6
:1003C0008B1703170C087F390319282A0313C4005D
:1003D00003170D080313C50003170F080313C60006
:1003E0004408C800C721450803178D0003134608B9
:1003F00003178F0003130B08C7008B138316031713
:100400008C170C140000000083120313C71B8B17FA
:1004100003170C0D0E0D7F390319282A0313C4008E
:1004200003170D080313C50003170F080313C600B5
:100430004408C800C721450803178D000313460868
:1004400003178F008D0A03198F0A0313D42903178A
:1004500003138A110A12422B4508FA00440884004B
:1004600083137A18831780080319502A4508FA0065
:100470004408840083137A1883170008C6004608CE
:10048000C70083160910831209144708C800832186
:100490008316091083120910C40A0319C50A2C2AED
:1004A00008000B128B1183160C110D100C128C12FC
:1004B0008C118C138D110D120D13C03083128B040F
:1004C0008A110A12512B83160108C039073881009E
:1004D00083128B168A110A12522BC508031D742A27
:1004E00080304407C600772AC0304407C600013078
:1004F000C7005B214608C80083210A30C7005B2182
:100500008A110A12582B0B08C5008B138316031788
:100510008C170C140000000083120313C51B8B17EB
:100520000318BA2A03170C087F390313C5000317F1
:100530000D080313C60003170F080313C70045086F
:10054000C800C721460803178D0003134708031787
:100550008F0003130B08C8008B13831603178C1727
:100560000C140000000083120313C81B8B17C40B6C
:10057000BA2AD92A03170C0D0E0D7F390313C500B3
:1005800003170D080313C60003170F080313C70052
:100590004508C800C721460803178D000313470804
:1005A00003178F008D0A03198F0A03100313C40B5E
:1005B000832A8A110A12652B4708F801460203189C
:1005C000E42A4608F700F02AF7010830C800C60DF3
:1005D000F70D470877020318F700F80DC80BE72A54
:1005E000080078084408C6006430C700DC22770899
:1005F000C40078083030031D042BC51C0B2BC51913
:100600000B2B451A2030072BC51145124514F8074E
:100610007808C800C7214408C6000A30C700DC2299
:100620007708C40078083030031D1C2BC519202B17
:10063000451C202B451A2030F8077808C800C72130
:100640003030C4074408C800C7218A110A126A2B37
:1006500003081F3983002B10AF01AE0183161F144E
:100660009F141F159F1107309C008313831290293C
:10067000AF013030AE001B3003178D0001308F000A
:100680000313D4290A30C7005B21C5013030C400F0
:100690002C220430C400FA30C7005B21C40B4B2B62
:1006A000512A632A2B1C6E2BC4010130C5006D2A10
:1006B000AF013030AE00223003178D0001308F00C3
:1006C000031007300313C400832A2D08C40011301F
:1006D000C500F12AC5013030C4002C22522B630022
:02400E00323F3F
:00000001FF
;PIC16F877A
;CRC=3939  CREATED="23-Apr-22 21:54"
