:1000000001308A0029290000C422CD272028D726C4
:100010000000C2306E266937E825E9326E17563780
:1000200000003D18152808121628081603103D0C6C
:100030000139031D1D2888121E2888163D0CF70063
:10004000F70C3F30F70577080139031D29280813FD
:100050002A2808173D0CF700F70CF70C1F30F7059E
:1000600077080139031D36288813372888170800B8
:100070003A3084008313000803194C280730F80035
:10008000F701F70B4128F80B4028C730F700F70BB2
:1000900047280000800B3E28080009150530F700AE
:1000A000F70B5028532809116330F700F70B562837
:1000B000592808003B0EBC000F30BC053C08BD00B1
:1000C00011204D203B08BD0011204D200800831653
:1000D0000812881208138813091109108910831255
:1000E000BD0111201430BA003820091089100330E6
:1000F000BD0011204D200530BA0038204D20C730FA
:10010000F700F70B812884284D200230BD00112014
:100110004D202830BB005A200C30BB005A2006303E
:10012000BB005A200130BB005A208A110A124B2909
:10013000210884008313221883173A088000840A58
:100140008001A10A0319A20A0800831603178C175D
:100150000C140000000083120C087F390319E928F1
:100160000313B70003170D080313B80003170F0894
:100170000313B9003708BA009820380803178D0018
:100180000313390803178F0083168C170C14000013
:10019000000083120C0D0E0D7F390319E92803139B
:1001A000B70003170D080313B80003170F08031354
:1001B000B9003708BA009820380803178D000313D8
:1001C000390803178F008D0A03198F0A0313A52816
:1001D0000317031308003808FA0037088400831354
:1001E0007A1883178008031909293808FA00370894
:1001F000840083137A1883170008B9003908BA00FD
:1002000009143A08BB005A200910B70A0319B80AA2
:10021000EB2808000130BB005A200A30BA00382011
:100220008A110A126429B808031D1A298030370779
:10023000B9001D29C0303707B9000130BA00382095
:100240003908BB005A200A30BA0038208A110A1235
:100250007129840183131F308305FF30A000A201A0
:10026000A10183161F149F141F159F1107309C00B6
:100270000030F800063883129200FF308316920097
:10028000831295012011200883168700831207111D
:100290000C3097006728A2012330A1000430031717
:1002A0008D0000308F000313A5200A30BA003820DB
:1002B000B8012330B700EB200430B700FA30BA00A1
:1002C0003820B70B5E290A29A2012330A10009308A
:1002D00003178D0000308F000313A520B701B8016C
:1002E0001329B8012330B700EB200030F8000438A0
:1002F00092003B308316920083122011200883164F
:100300008700831207110C30970048309500872929
:02031000630088
:02400E003A3F37
:00000001FF
;PIC16F877A
;CRC=BFE9  CREATED="06-Oct-12 01:19"
