:1000000001308A00E32900002010202AC52954105D
:10001000C3275527D4225200D33720366137A01E7C
:10002000A012B23A00003D18172808121828081626
:1000300003103D0C0139031D1F2888122028881643
:100040003D0CF700F70C3F30F70577080139031D29
:100050002B2808132C2808173D0CF700F70CF70C79
:100060001F30F70577080139031D38288813392810
:10007000881708003A3084008313000803194E28BB
:100080000730F800F701F70B4328F80B4228C73078
:10009000F700F70B49280000800B402808000915DD
:1000A0000530F700F70B5228552809116330F70087
:1000B000F70B58285B2808003B0EBC000F30BC052E
:1000C0003C08BD0013204F203B08BD0013204F20EB
:1000D00008008316081288120813881309110910E2
:1000E00089108312BD0113201430BA003A20091080
:1000F00089100330BD0013204F200530BA003A208C
:100100004F20C730F700F70B832886284F20023096
:10011000BD0013204F202830BB005C200C30BB00FA
:100120005C200630BB005C200130BB005C208A11E3
:100130000A12F229200884008313211883173B0830
:100140008000840A8001A00A0319A10A08000B0894
:10015000B7008B13831603178C170C1400000000D4
:1001600083120313B71B8B1703170C087F3903196E
:10017000FB280313B70003170D080313B800031778
:100180000F080313B9003708BB009A20380803177B
:100190008D000313390803178F0003130B08BA00EF
:1001A0008B13831603178C170C14000000008312A6
:1001B0000313BA1B8B1703170C0D0E0D7F39031990
:1001C000FB280313B70003170D080313B800031728
:1001D0000F080313B9003708BB009A20380803172B
:1001E0008D000313390803178F008D0A03198F0A36
:1001F0000313A728031703138A110A12FC293808CE
:10020000FA003708840083137A18831780080319CB
:100210001D293808FA003708840083137A188317D9
:100220000008B9003908BA0009143A08BB005C207C
:100230000910B70A0319B80AFF2808008316010835
:10024000C7392838810083128B168A110A12082AAE
:10025000B808031D2F2980303707B9003229C03074
:100260003707B9000130BA003A203908BB005C20DA
:100270000A30BA003A208A110A12122A0B08B80072
:100280008B13831603178C170C14000000008312C5
:100290000313B81B8B170318752903170C087F3934
:1002A0000313B80003170D080313B90003170F0851
:1002B0000313BA003808BB009A20390803178D00D1
:1002C00003133A0803178F0003130B08BB008B13AB
:1002D000831603178C170C140000000083120313FD
:1002E000BB1B8B17B70B7529942903170C0D0E0D2B
:1002F0007F390313B80003170D080313B900031760
:100300000F080313BA003808BB009A2039080317F6
:100310008D0003133A0803178F008D0A03198F0A03
:1003200003100313B70B3E298A110A121F2A3A0839
:10033000F801390203189F293908F700AB29F701A2
:100340000830BB00B90DF70D3A0877020318F70023
:10035000F80DBB0BA229080078083708B9006430F3
:10036000BA0097217708B70078083030031DBF29FD
:10037000B81CC629B819C629381A2030C229B811A4
:1003800038123814F8077808BB009A203708B900EB
:100390000A30BA0097217708B70078083030031D7B
:1003A000D729B819DB29381CDB29381A2030F8077F
:1003B0007808BB009A203030B7073708BB009A2076
:1003C0008A110A12242A03081F398300A101A001FF
:1003D00083161F149F141F159F1107309C00831351
:1003E00083126928A1012230A000043003178D0078
:1003F00000308F000313A728B8012230B700FF2078
:100400000430B700FA30BA003A20B70B022A1E298E
:1004100081016430BA003A200108B600B70101300A
:10042000B8002829A1012230A0000C3003178D004C
:1004300000308F00031009300313B7003E2936083F
:10044000B7001130B800AC29B8012230B700FF2046
:04045000092A630012
:02400E003A3F37
:00000001FF
;PIC16F877A
;CRC=1FE1  CREATED="23-Apr-22 22:11"
