:1000000001308A00D729000020102022C5264F1079
:10001000C3275527D4225200C2306E266937E825FF
:10002000E9326E175637000146103D10251975103C
:10003000F83AEE33AF3900003D1820280812212885
:10004000081603103D0C0139031D282888122928A1
:1000500088163D0CF700F70C3F30F705770801399B
:10006000031D34280813352808173D0CF700F70C3A
:10007000F70C1F30F70577080139031D4128881355
:100080004228881708003A308400831300080319B7
:1000900057280730F800F701F70B4C28F80B4B28CE
:1000A000C730F700F70B52280000800B49280800E2
:1000B00009150530F700F70B5B285E28091163303E
:1000C000F700F70B6128642808003B0EBC000F30D6
:1000D000BC053C08BD001C2058203B08BD001C206E
:1000E0005820080083160812881208138813091173
:1000F000091089108312BD011C201430BA0043205E
:10010000091089100330BD001C2058200530BA00AA
:1001100043205820C730F700F70B8C288F28582031
:100120000230BD001C2058202830BB0065200C3058
:10013000BB0065200630BB0065200130BB00652098
:100140008A110A12E62920088400831321188317D4
:100150003B088000840A8001A00A0319A10A080054
:10016000831603178C170C140000000083120C0870
:100170007F390319F4280313B70003170D0803137D
:10018000B80003170F080313B9003708BB00A320FA
:10019000380803178D000313390803178F008316DF
:1001A0008C170C140000000083120C0D0E0D7F390B
:1001B0000319F4280313B70003170D080313B8003D
:1001C00003170F080313B9003708BB00A320380832
:1001D00003178D000313390803178F008D0A0319C5
:1001E0008F0A0313B0280317031308003808FA0016
:1001F0003708840083137A18831780080319142999
:100200003808FA003708840083137A188317000827
:10021000B9003908BA0009143A08BB006520091072
:10022000B70A0319B80AF62808000130BB00652098
:100230000A30BA0043208A110A12FF29B808031DA8
:10024000252980303707B9002829C0303707B90081
:100250000130BA0043203908BB0065200A30BA00DB
:100260004320080083160108C7392838810083120B
:100270008B168A110A12112A831603178C170C1475
:100280000000000003186B2983120C087F39031348
:10029000B80003170D080313B90003170F08031361
:1002A000BA003808BB00A320390803178D000313D8
:1002B0003A0803178F0083168C170C1400000000F7
:1002C00083120313B70B65296829831603176B295B
:1002D0008A298316031783120C0D0E0D7F39031321
:1002E000B80003170D080313B90003170F08031311
:1002F000BA003808BB00A320390803178D00031388
:100300003A0803178F008D0A03198F0A031003138D
:10031000B70B3C2908003A08F80139020318932961
:100320003908F7009F29F7010830BB00B90DF70D18
:100330003A0877020318F700F80DBB0B962908005E
:1003400078083708B9006430BA008B217708B70005
:1003500078083030031DB329B81CBA29B819BA2956
:10036000381A2030B629B81138123814F80778082E
:10037000BB00A3203708B9000A30BA008B217708E8
:10038000B70078083030031DCB29B819CF29381CA5
:10039000CF29381A2030F8077808BB00A320303066
:1003A000B7073708BB00A3208A110A12312A84013B
:1003B00083131F308305A101A00183161F149F140E
:1003C0001F159F1107309C0083127228A101223053
:1003D000A000043003178D0000308F000313B020FD
:1003E0000A30BA004320B8012230B700F6200430AA
:1003F000B700FA30BA004320B70BF9291529A1013B
:100400002230A0000C3003178D0000308F00031342
:10041000B020B701B8011E21B8012230B700F62084
:10042000322981010430B700FA30BA004320B70BFB
:10043000142A0108B600B7010130B8001E21A1013D
:100440002230A000143003178D0000308F000310FD
:1004500004300313B7003C213608B7001130B80050
:10046000A029173003178D0000308F0003140730C8
:100470000313B7003C21B8012230B700F6208101F8
:04048000122A6300D9
:02400E003A3F37
:00000001FF
;PIC16F877A
;CRC=7034  CREATED="05-Oct-12 23:24"
