:1000000002308A00032A00002010C422CD27A0203D
:10001000C4210000A020E431BD12343675003E1822
:10002000132808121428081603103E0C0139031D6A
:100030001B2888121C2888163E0CF700F70C3F304E
:10004000F70577080139031D272808132828081702
:100050003E0CF700F70CF70C1F30F7057708013955
:10006000031D342888133528881708003B30840086
:100070008313000803194A280730F800F701F70B2B
:100080003F28F80B3E28C730F700F70B4528000043
:10009000800B3C28080009150530F700F70B4E28A7
:1000A000512809116330F700F70B5428572808002E
:1000B0003C0EBD000F30BD053D08BE000F204B209B
:1000C0003C08BE000F204B2008008316081288123F
:1000D000081388130911091089108312BE010F201B
:1000E0001430BB003620091089100330BE000F20E9
:1000F0004B200530BB0036204B20C730F700F70BF4
:100100007F2882284B200230BE000F204B20283051
:10011000BC0058200C30BC0058200630BC005820D1
:100120000130BC0058208A110A12122A83161F13AC
:1001300083121F139F1383169F1783121F14831696
:100140001F109F141F159F150C1383128A110A127A
:10015000132A200884008313211883174108800084
:10016000840A8001A00A0319A10A08000B08B8003C
:100170008B13831603178C170C14000000008312D6
:100180000313B81B8B1703170C087F3903190A29AF
:100190000313B80003170D080313B90003170F0862
:1001A0000313BA003808C100A920390803178D00CD
:1001B00003133A0803178F0003130B08BB008B13BC
:1001C000831603178C170C1400000000831203130E
:1001D000BB1B8B1703170C0D0E0D7F3903190A2952
:1001E0000313B80003170D080313B90003170F0812
:1001F0000313BA003808C100A920390803178D007D
:1002000003133A0803178F008D0A03198F0A03138B
:10021000B628031703138A110A121D2A3908FA0097
:100220003808840083137A188317800803192C294F
:100230003908FA003808840083137A1883170008F5
:10024000BA003A08BB0009143B08BC00582009104A
:10025000B80A0319B90A0E290800B908031D342980
:1002600080303807BA003729C0303807BA0001306B
:10027000BB0036203A08BC0058206330F700F70B6B
:100280003F2942298A110A12342A0B08B9008B131C
:10029000831603178C170C1400000000831203133D
:1002A000B91B8B1703187C2903170C087F3903131C
:1002B000B90003170D080313BA0003170F0803133F
:1002C000BB003908C100A9203A0803178D000313A9
:1002D0003B0803178F0003130B08BC008B13831616
:1002E00003178C170C140000000083120313BC1BAF
:1002F0008B17B80B7C299B2903170C0D0E0D7F392A
:100300000313B90003170D080313BA0003170F08EE
:100310000313BB003908C100A9203A0803178D0058
:1003200003133B0803178F008D0A03198F0A03106C
:100330000313B80B45298A110A12412AC001040887
:10034000BF004010831B4014390EF038BB00BB07C0
:10035000E23EBC00323EBE0039080F39BC07BC0784
:10036000BE07E93EBD00BD07BD07380E0F39BD070A
:10037000BE07BD0DBE0DBE09BE0D38080F39BE0744
:10038000BB0D0730BA000A30BE07BD03031CC429E9
:10039000BD07BC03031CC829BC07BB03031CCC2935
:1003A000BB07BA03031CD0293A30840083130730FB
:1003B0003F053F1384073E30040203193F1700082E
:1003C000F700031DEB293F1BEB293F1AFD29BF193D
:1003D000EB292030EE29BF153F123030F707B90165
:1003E0000408B8003910831B39147708C100A9200C
:1003F00038088400831339188317840A3F1FDB29C8
:100400008A110A12482A03081F398300A101A0019A
:1004100083161F149F141F159F1107309C00831310
:10042000831265289628A1012230A000043003170A
:100430008D0000308F000313B628B9012230B800B8
:100440000E210030F8001F08C73978049F001F15DF
:100450001F19282A83161E088312B6001E08B7002B
:100460000130B800B9002D29A1012230A0000A30C6
:1004700003178D0000308F00031005300313B80000
:100480004529013084003708B9003608B8009E2994
:10049000B9012230B8000E210430B800FA30BB0098
:0A04A0003620B80B4E2A212A630013
:02400E003A3F37
:00000001FF
;PIC16F877A
;CRC=973E  CREATED="23-Apr-22 21:33"
