:1000000001308A0077290000CB225910342C34109B
:100010000A00CE3A7410E4302037E8306E1DA0128A
:1000200063100A008316081088100811881108163A
:1000300088160817881783128A110A12AC298A11A8
:100040000A12AD290B08B1008B13831603178C1706
:100050000C140000000083120313B11B8B1703174D
:100060000C087F39031978280313B10003170D0812
:100070000313B20003170F080313B30031080C1E5B
:100080003F289900320803178D0003133308031724
:100090008F0003130B08B4008B13831603178C1700
:1000A0000C140000000083120313B41B8B170317FA
:1000B0000C0D0E0D7F39031978280313B1000317B7
:1000C0000D080313B20003170F080313B300310820
:1000D0000C1E68289900320803178D00031333089B
:1000E00003178F008D0A03198F0A031322280317A1
:1000F00003138A110A12B4290810881008118811F4
:100100000030081E0130B3000030881E0130B304F7
:100110000030081F0130B3040030881F0130330461
:10012000031996280130F800982898280030F80024
:10013000080032308400831300080319AD2807300B
:10014000F800F701F70BA228F80BA128C730F70039
:10015000F70BA8280000800B9F2808007C20F808D7
:10016000031919290530B20099207C20F8080319D9
:100170001929B1013108033C031C19293108B200C7
:100180000814881408158815B208031DC92808101A
:10019000D428320BCD288810D4283208023C031D05
:1001A000D3280811D4288811081AE4283108033C00
:1001B000F700F70DF70DFC30F7057708203E8400B7
:1001C00083130008F8001B29881AF5283108033C1E
:1001D000F700F70DF70DFC30F7057708013E203EDC
:1001E000840083130008F8001B29081B0629310826
:1001F000033CF700F70DF70DFC30F7057708023EDA
:10020000203E840083130008F8001B29881B17294F
:100210003108033CF700F70DF70DFC30F7057708C0
:10022000033E203E840083130008F8001B29B10A16
:10023000BA280030F80008000B08B2008B138316B0
:1002400003178C170C140000000083120313B21B59
:100250008B170318542903170C087F390313B200B6
:1002600003170D080313B30003170F080313B4009B
:1002700032080C1E39299900330803178D00031327
:10028000340803178F0003130B08B5008B13831674
:1002900003178C170C140000000083120313B51B06
:1002A0008B17B10B5429742903170C0D0E0D7F39D0
:1002B0000313B20003170D080313B30003170F084D
:1002C0000313B40032080C1E632999003308031786
:1002D0008D000313340803178F008D0A03198F0A4A
:1002E00003100313B10B1C298A110A12C429030835
:1002F0001F398300263083169900A2309800903071
:100300008312980083161F149F141F159F11073026
:100310009C00831337308312A0003830A10039309D
:10032000A2002F30A3003430A4003530A5003630B1
:10033000A6002A30A7003130A8003230A90033309F
:10034000AA002D30AB002330AC003030AD003D3082
:10035000AE002B30AF0012281F28043003178D0089
:1003600000308F0003132228AE207808B000B008B8
:100370000319D729093003178D0000308F000310AF
:100380000D300313B1001C2930080C1EC52999003B
:1003900020300C1EC92999000A300C1ECD29990065
:1003A000B0080319D729AE207808B000D0296430EE
:0803B000B2009920B42963009A
:02400E003A3F37
:00000001FF
;PIC16F877A
;CRC=42A9  CREATED="23-Apr-22 21:22"
