:1000000002308A00DF2A0000FF00030E8301A100F6
:100010000A08A0008A010408A2007708A300780853
:10002000A4007908A5007A08A600831383128B1E0A
:100030001B280B197C288B1D1F280B187F280B1ED3
:1000400023288B1882288C308400001F29280C1B41
:1000500085288C308400001E2F280C1A88288C30AC
:100060008400801E35288C1A8B288C308400001C5C
:100070003B280C188E288C308400801C41288C185A
:1000800091288C308400001D47280C1994288D304D
:100090008400001C4D280D1897288C308400801D8A
:1000A00053288C199A288C308400801F59288C1B67
:1000B0009D288D308400801D5F288D19A0288D30EB
:1000C0008400001E65280D1AA3288D308400001FAF
:1000D0006B280D1BA628220884002308F70024089B
:1000E000F8002508F9002608FA0020088A00210EE9
:1000F0008300FF0E7F0E09008A110A12B1288A11AF
:100100000A12AD288A110A12A9288A110A12D328C4
:100110008A110A12DF288A110A12E3288A110A12A8
:10012000CB288A110A12CF288A110A12D7288A11DD
:100130000A12DB288A110A12E7288A110A12EB2810
:100140008A110A12EF288A110A12F3288A110A1258
:10015000F7288B108A110A126B280B108A110A12C9
:100160006B2802308100A80A28082E3C031DC728EE
:100170000B138B138B1BB928A8012908633C031DA3
:10018000C328A901C428A90A2714C0308B040B1165
:100190008A110A126B280C108A110A126B288C1013
:1001A0008A110A126B280C138A110A126B280C117F
:1001B0008A110A126B280D108A110A126B280C1270
:1001C0008A110A126B288C128A110A126B288C1160
:1001D0008A110A126B288C138A110A126B288D114E
:1001E0008A110A126B280D128A110A126B280D133C
:1001F0008A110A126B2820102022C5264F10D42401
:10020000CD225200C2306E266937E825E9326E17DA
:1002100056370001C73461107439691D25197500FE
:10022000461814290812152908160310460C01391E
:10023000031D1C2988121D298816460CF700F70C8F
:100240003F30F70577080139031D282908132929AC
:100250000817460CF700F70CF70C1F30F705770866
:100260000139031D352988133629881708004330C2
:1002700084008313000803194B290730F800F701A5
:10028000F70B4029F80B3F29C730F700F70B462939
:100290000000800B3D29080009150530F700F70B19
:1002A0004F29522909116330F700F70B55295829B6
:1002B0000800440EC5000F30C5054508C6001021D2
:1002C0004C214408C60010214C2108008316081256
:1002D0008812081388130911091089108312C601A6
:1002E00010211430C3003721091089100330C600D3
:1002F00010214C210530C30037214C21C730F700B5
:10030000F70B802983294C210230C60010214C2193
:100310002830C40059210C30C40059210630C400D3
:1003200059210130C40059218A110A12EF2A2A08E2
:10033000840083132B18831744088000840A8001EB
:10034000AA0A0319AB0A0800831603178C170C14AA
:100350000000000083120C087F390319E8290313F9
:10036000C00003170D080313C10003170F08031380
:10037000C2004008C4009721410803178D000313F1
:10038000420803178F0083168C170C14000000001E
:1003900083120C0D0E0D7F390319E8290313C000D9
:1003A00003170D080313C10003170F080313C2003E
:1003B0004008C4009721410803178D000313420829
:1003C00003178F008D0A03198F0A0313A42903173B
:1003D000031308004108FA004008840083137A18C8
:1003E000831780080319082A4108FA00400884008E
:1003F00083137A1883170008C2004208C300091447
:100400004308C40059210910C00A0319C10AEA2986
:1004100008000130C40059210A30C30037218A1175
:100420000A12082BC108031D192A80304007C20098
:100430001C2AC0304007C2000130C30037214208E7
:10044000C40059210A30C300372108000B128B1158
:1004500083160C110D100C128C128C118C138D1133
:100460000D120D13C03083128B048A110A121A2B3D
:1004700083160108C0390738810083128B168A1150
:100480000A121B2B831603178C170C140000000094
:100490000318712A83120C087F390313C100031754
:1004A0000D080313C20003170F080313C30041080C
:1004B000C4009721420803178D0003134308031754
:1004C0008F0083168C170C14000000008312031396
:1004D000C00B6B2A6E2A83160317712A902A831683
:1004E000031783120C0D0E0D7F390313C100031780
:1004F0000D080313C20003170F080313C3004108BC
:10050000C4009721420803178D0003134308031703
:100510008F008D0A03198F0A03100313C00B422AA0
:100520008A110A122E2B4308F801420203189B2A53
:100530004208F700A72AF7010830C400C20DF70DE2
:10054000430877020318F700F80DC40B9E2A080031
:1005500078084008C2006430C30093227708C000C6
:1005600078083030031DBB2AC11CC22AC119C22A17
:10057000411A2030BE2AC11141124114F8077808EF
:10058000C40097214008C2000A30C30093227708B4
:10059000C00078083030031DD32AC119D72A411C66
:1005A000D72A411A2030F8077808C4009721303044
:1005B000C0074008C40097218A110A12332B840116
:1005C00083131F3083052710AB01AA0183161F1464
:1005D0009F141F159F1107309C0083126629AB01E1
:1005E0002C30AA00FB3003178D0000308F0003135E
:1005F000A4210A30C3003721C1012C30C000EA21F8
:100600000430C000FA30C3003721C00B022B092A86
:10061000AB012C30AA00023003178D0001308F008F
:100620000313A421C001C1011222C1012C30C0005A
:10063000EA21262A382A271C372BC0010130C100A5
:100640001222AB012C30AA000A3003178D000130B2
:100650008F00031008300313C000422A2908C0008D
:100660001130C100A82AC1012C30C000EA211B2B87
:02067000630025
:02400E003A3F37
:00000001FF
;PIC16F877A
;CRC=0B74  CREATED="05-Oct-12 22:21"
