:1000000004308A00BD2C0000FF00030E8301A10014
:100010000A08A0008A010408A2007708A300780853
:10002000A4007908A5007A08A60003170D08031399
:10003000A70003170F080313A80003170C080313E6
:10004000A90003170E080313AA00831383128C3030
:100050008400001C2D280C1854288D308400001CAE
:1000600033280D185728220884002308F700240895
:10007000F8002508F9002608FA00270803178D0064
:100080000313280803178F000313290803178C0094
:1000900003132A0803178E00031320088A00210E79
:1000A0008300FF0E7F0E09008A110A1290288A1120
:1000B0000A125A281B082E07EA002F08EB001C081A
:1000C00003181C0FEB073008EC0000300318013058
:1000D000EC073108ED00003003180130ED072C0863
:1000E0006A02B2006B08B3002D08031C2D0FB30287
:1000F0006C08B4000030031C0130B4026D08B50078
:100100000030031C0130B5021C08AD001B08AC0018
:10011000B101B001AF01AE010D108A110A123328EE
:10012000FF30AE07031CAF07003003180130B007E3
:10013000003003180130B1070C108A110A1233285D
:100140004927D02A5410C320502A55294500D430BD
:100150006E10D3373D10251BAE1866005618B22816
:100160000812B32808160310560C0139031DBA28CB
:100170008812BB288816560CF700F70C3F30F7059D
:1001800077080139031DC6280813C7280817560C1D
:10019000F700F70CF70C1F30F70577080139031D3E
:1001A000D3288813D4288817080053308400831379
:1001B00000080319E9280730F800F701F70BDE28DB
:1001C000F80BDD28C730F700F70BE4280000800BA0
:1001D000DB28080009150530F700F70BED28F0289B
:1001E00009116330F700F70BF328F6280800540EC6
:1001F000D5000F30D5055508D600AE20EA205408AA
:10020000D600AE20EA2008008316081288120813D0
:1002100088130911091089108312D601AE201430F9
:10022000D300D520091089100330D600AE20EA2073
:100230000530D300D520EA20C730F700F70B1E2980
:100240002129EA200230D600AE20EA202830D4004E
:10025000F7200C30D400F7200630D400F72001300E
:10026000D400F7208A110A12D72C36088400831391
:10027000371883175D088000840A8001B60A0319C5
:10028000B70A08000B08D0008B13831603178C17CE
:100290000C140000000083120313D01B8B170317EC
:1002A0000C087F39031996290313D00003170D0892
:1002B0000313D10003170F080313D2005008DD0009
:1002C0003521510803178D000313520803178F00BF
:1002D00003130B08D3008B13831603178C170C140E
:1002E0000000000083120313D31B8B1703170C0DA0
:1002F0000E0D7F39031996290313D00003170D083B
:100300000313D10003170F080313D2005008DD00B8
:100310003521510803178D000313520803178F006E
:100320008D0A03198F0A03134229031703138A1135
:100330000A12E12C5108FA005008840083137A183D
:10034000831780080319B8295108FA00500884005F
:1003500083137A1883170008D2005208D3000914B7
:100360005308D400F7200910D00A0319D10A9A299A
:1003700008008530900083160C1483128A110A122B
:10038000F02CB630F700FA01F901F80150085104D9
:1003900052045304031DCE29F701DB290310F81B77
:1003A000DA29D00DD10DD20DD30DFA0DF90DF80DBE
:1003B000F70BCE29F8138A110A12042D50080319DD
:1003C000A32ADC0054080319A32ADC02031CED292C
:1003D0007F30DC070318A32AF3298130DC02031CD9
:1003E000A32A0319A32A5C08F700F801F901FA010E
:1003F000DB015108DA00DA175208D9005308D80097
:100400001930DC005708D8020318162A0130D90227
:100410000318162ADA020318162ADB020318162A12
:10042000DB0ADA0AD90A5708D807482A5608D90237
:100430000318312A0130DA020318312ADB020318CB
:10044000312ADB0ADA0A5608D9075708D807031CED
:10045000482AD90A031D482ADA0A031D482ADB0A5A
:10046000482A55088038DA020318472A0130DB028F
:100470000318472ADB0A55088038DA075608D907D7
:10048000031C252ADA0A031D252ADB0A252A7A14E9
:10049000DC0B4B2A562A0310D80DD90DDA0DDB0DD3
:1004A0000310FA0DF90DF80DDD0D022A5D1C5E2A10
:1004B0000310F80CF90CFA0CDD0C612AF703031990
:1004C000A32ADD1B8A2A0310D80DD90DDA0DDB0D06
:1004D0005708D8020318762A0130D9020318762A61
:1004E000DA020318762ADB02031C992A5608D9027D
:1004F0000318812A0130DA020318812ADB02031C67
:10050000992A55088038DA0203188A2A0130DB025A
:10051000031C992AFA0A031D992AF90A031D992A2C
:10052000F80A031D992AF70A0319A32AF80CF90CF3
:10053000FA0C5108DC005508DC06DC1FA12AF8176C
:10054000A72AF813A72AF701F801F901FA018A117D
:100550000A12142DD108031DB12A80305007D20091
:10056000B42AC0305007D2000130D300D520520841
:10057000D400F7200130D300D5208A110A12202D93
:100580000B08D1008B13831603178C170C14000073
:10059000000083120313D11B8B170318F72A0317CC
:1005A0000C087F390313D10003170D080313D20081
:1005B00003170F080313D3005108DD00352152083B
:1005C00003178D000313530803178F0003130B0841
:1005D000D4008B13831603178C170C140000000033
:1005E00083120313D41B8B17D00BF72A162B031778
:1005F0000C0D0E0D7F390313D10003170D080313E3
:10060000D20003170F080313D3005108DD00352172
:10061000520803178D000313530803178F008D0A28
:1006200003198F0A03100313D00BC02A8A110A1270
:100630002D2D83181E2B653084008313F701F801DC
:10064000F901FA01E501E601E701E8016408630444
:100650006204610403195C2B2030E9000310DD0DF6
:10066000DE0DDF0DE00DE50DE60DE70DE80D64088C
:100670006802031D452B63086702031D452B6208B2
:100680006602031D452B61086502031C562B610899
:10069000E5026208031C620FE6026308031C630F95
:1006A000E7026408031C640FE8020314F70DF80D59
:1006B000F90DFA0DE90B2E2B65088000840A6608F7
:1006C0008000840A67088000840A680880000800A7
:1006D0000408D5005408D7000319FA2B5308E0008A
:1006E0005208DF005108DE005008DD00E401E3019C
:1006F0002030E2008230E1005D080319EC2BE500B8
:1007000061080319EC2BE50703188D2B7F30E502F8
:10071000031CEC2B0319EC2B912B8130E5070318FC
:10072000EC2B6508F700F801F901FA015E08E90011
:10073000E9175F08E8006008E7001830E500E60107
:10074000671CBA2B6408FA07031CAC2BF90A031DBB
:10075000AC2BF80A0319E6176308F907031CB32B3F
:10076000F80A0319E6176208DF00DF175F08F807C9
:100770000318E617E60DF80CF90CFA0CE90CE80C76
:10078000E70C0310E50B9F2B0130F7070318EC2B48
:10079000F81BD12BE90DFA0DF90DF80DF70303192C
:1007A000EC2BE91FE22BFA0A031DE22BF90A031DC9
:1007B000E22BF80A031DE22BF80CF90CFA0CF70AED
:1007C0000319EC2B5E08E6006208E606E61FEA2B3A
:1007D000F817F02BF813F02BF701F801F901FA01E3
:1007E0007A08D3007908D2007808D1007708D000C1
:1007F000D70B6E2B5308E0005208DF005108DE00D3
:100800005008DD005D08B63CDD00FA015E08E1003D
:10081000DE170310DE0CDF0CE00CFA0CF90CF80C00
:10082000F70CDD0B092CE11F202CF709F809F90959
:10083000FA09F70A0319F80A0319F90A0319FA0A57
:100840007A08D3007908D2007808D1007708D00060
:10085000D31F372CD503D516D009D109D209D30916
:10086000D00A0319D10A0319D20A0319D30A3B305B
:10087000DC009A30DB00CA30DA00D9010A30D70038
:1008800054080319D50A8314503084008313530885
:10089000E0005208DF005108DE005008DD005C086F
:1008A000E4005B08E3005A08E2005908E10019235C
:1008B0007808F708031D6F2C540A570203196F2C90
:1008C00055080319712C0F3957020319692C0318A5
:1008D000A12CD51BA12C551B712C20309D2C203018
:1008E000D505D51E7F2CD5125408031DD5037708D6
:1008F000D5002D30DD0035215508F700D50154080D
:100900005702031D8D2C7708D5002E30DD003521D0
:100910005508F7002030D50500303030D51E9D2C0D
:10092000D5125408031DD5037708D5002D30DD00FE
:1009300035215508F700D5013030F7077708DD007D
:10094000352183105C08E0005B08DF005A08DE00F8
:100950005908DD00E401E301E2010A30E100192356
:100960007A08DC007908DB007808DA007708D9001B
:10097000D70B432C8A110A123A2D03081F39830022
:100980002B10AD01AC01B101B001AF01AE01B50159
:10099000B401B301B201B701B60183161F149F144D
:1009A0001F159F1107309C00831383120429B70180
:1009B0003830B600A03003178D0000308F000313CD
:1009C00042290A30D300D520D1013830D0009A21F5
:1009D0000430D000FA30D300D520D00BEA2CB9294E
:1009E0008E018F018E01C0308B0483160D1483128B
:1009F0009D0104309D003508D3003408D20033082F
:100A0000D1003208D000C129D3011B30D2003730C9
:100A1000D1009530D0007A08D7007908D600780840
:100A2000D5007708D400DE297A08CF007908CE00F7
:100A30007808CD007708CC00D0010130D100AA2A77
:100A4000B7013830B600A73003178D0000308F0093
:100A5000031008300313D000C02A053084004F086B
:100A6000D3004E08D2004D08D1004C08D000013010
:100A7000D400682BD1013830D0009A21FB2C6300C0
:02400E003A3F37
:00000001FF
;PIC16F877A
;CRC=6851  CREATED="24-Apr-22 10:32"
