:1000000001308A00BF290000C8326C366F10C43A34
:10001000EE3300003D180E2808120F28081683162C
:100020000812031083123D0C0139031D1928881290
:100030001A2888168316881283123D0CF700F70CD5
:100040003F30F70577080139031D282808132928B0
:1000500008178316081383123D0CF700F70CF70CF2
:100060001F30F70577080139031D38288813392810
:10007000881783168813831208003A30840083138C
:100080000008031950280630F800F701F70B46283E
:10009000F80B45287B30F700F70B4C28800B4328E2
:1000A000080083160911831209150430F700F70BB5
:1000B00057285A2883160911831209115230F70064
:1000C000F70B60286328000008003B0EBC000F30CF
:1000D000BC053C08BD000A2051203B08BD000A2099
:1000E000512008008316081288120813881309117A
:1000F000091089108312BD010A201430BA003D2076
:10010000831609108312091083168910831289102F
:100110000330BD000A2051200530BA003D20512097
:10012000A630F700F70B9228000051200230BD00E6
:100130000A2051202830BB0065200C30BB00652010
:100140000630BB0065200130BB0065208A110A1211
:10015000CE290130BB0065200A30BA003D200800DE
:10016000200884008313211883173D088000840A27
:100170008001A00A0319A10A08000B08B7008B131D
:10018000831603178C170C1400000000831203134E
:10019000B71B8B1703170C087F3903191129031399
:1001A000B70003170D080313B80003170F08031354
:1001B000B9003708BD00B020380803178D000313BD
:1001C000390803178F0003130B08BA008B1383162B
:1001D00003178C170C140000000083120313BA1BC2
:1001E0008B1703170C0D0E0D7F39031911290313FB
:1001F000B70003170D080313B80003170F08031304
:10020000B9003708BD00B020380803178D0003136C
:10021000390803178F008D0A03198F0A0313BD28AD
:10022000031703138A110A12D929B808031D1C29C0
:1002300080303707B9001F29C0303707B9000130B7
:10024000BA003D203908BB0065205230F700F70B9B
:1002500027292A29000008003808FA0037088400F6
:1002600083137A1883178008031950293808FA0075
:100270003708840083137A1883170008B9003908F7
:10028000BA0083160910831209143A08BB006520CE
:100290008316091083120910B70A0319B80A2C290A
:1002A00008003E08F8013D02031859293D08F700EF
:1002B0006529F7010830BF00BD0DF70D3E08770234
:1002C0000318F700F80DBF0B5C2908002030381E1A
:1002D0003030B9003708F700B71F7629F709F70A59
:1002E0007708B7002D30B900B81738143708BD00AB
:1002F0006430BE0051217708B70030307807BA006B
:100300003708BD000A30BE00512130307707BC00ED
:1003100030307807BB003908F70030303A02031953
:100320009529B814B81B3815A9293908BA00203006
:10033000B90030303B020319A1293814B81BB81496
:10034000A929031D3814031DA9293A08BB00203030
:10035000BA003819B029B818B3293818B629B929FC
:100360003908BD00B0203A08BD00B0203B08BD00F0
:10037000B0203C08BD00B0208A110A12F5290308FC
:100380001F398300A101A00183161F149F141F159C
:100390009F1107309C00831383127228A920A101AA
:1003A0002230A000043003178D0000308F000313AB
:1003B000BD28B701B8011521B8012230B7002C21A2
:1003C0000430B700FA30BA003D20B70BE229A9206B
:1003D000B6013608633C031C072AA1012230A000A5
:1003E0003608B7001130B80066290530B700013073
:1003F000B8001521B8012230B7002C210230B70017
:10040000FA30BA003D20B70B002AB60AE929E829DC
:02041000630087
:02400E00323F3F
:00000001FF
;PIC16F877A
;CRC=F1D6  CREATED="23-Apr-22 17:32"
