:1000000001308A00A5290000FF00030E8301A10032
:100010000A08A0008A010408A2007708A300780853
:10002000A4007908A5007A08A60003170D08031399
:10003000A70003170F080313A80003170C080313E6
:10004000A90003170E080313AA00831383128C3030
:100050008400001D2D280C194E2822088400230836
:10006000F7002408F8002508F9002608FA002708F8
:1000700003178D000313280803178F0003132908A3
:1000800003178C0003132A0803178E00031320089C
:100090008A00210E8300FF0E7F0E09008A110A12CA
:1000A00051282C1C5D282C102B112B08831687003F
:1000B000831207150930970066282C142B112B0882
:1000C0008316870083120711083097008E018F0175
:1000D0008E010C118A110A122D28CF2A5428552A74
:1000E000A021CF26D020D2220000C2306E26693750
:1000F000E825E9326E17563700004B1881280812A0
:100100008228081603104B0C0139031D8928881218
:100110008A2888164B0CF700F70C3F30F705770854
:100120000139031D95280813962808174B0CF70072
:10013000F70CF70C1F30F70577080139031DA228CB
:100140008813A32888170800483084008313000808
:100150000319B8280730F800F701F70BAD28F80BA2
:10016000AC28C730F700F70BB3280000800BAA2893
:10017000080009150530F700F70BBC28BF28091146
:100180006330F700F70BC228C5280800490ECA00E3
:100190000F30CA054A08CB007D20B9204908CB00A2
:1001A0007D20B920080083160812881208138813CE
:1001B0000911091089108312CB017D201430C80069
:1001C000A420091089100330CB007D20B920053010
:1001D000C800A420B920C730F700F70BED28F0289D
:1001E000B9200230CB007D20B9202830C900C620BC
:1001F0000C30C900C6200630C900C6200130C90035
:10020000C6208A110A12B7292F08840083133018D8
:10021000831748088000840A8001AF0A0319B00AD6
:1002200008000B08C5008B13831603178C170C14DA
:100230000000000083120313C51B8B1703170C0863
:100240007F39031965290313C50003170D0803132C
:10025000C60003170F080313C7004508C800042190
:10026000460803178D000313470803178F00031375
:100270000B08C8008B13831603178C170C1400008F
:10028000000083120313C81B8B1703170C0D0E0DF0
:100290007F39031965290313C50003170D080313DC
:1002A000C60003170F080313C7004508C800042140
:1002B000460803178D000313470803178F008D0AA4
:1002C00003198F0A031311290317031308004608A3
:1002D000FA004508840083137A18831780080319ED
:1002E00085294608FA004508840083137A18831785
:1002F0000008C7004708C80009144808C900C620FC
:100300000910C50A0319C60A672908000130C90087
:10031000C6200A30C800A4208A110A12D029C608B3
:10032000031D962980304507C7009929C03045072D
:10033000C7000130C800A4204708C900C6200A3001
:10034000C800A4208A110A12DD2903081F3983007E
:10035000FF30AB002C10B001AF0183161F149F14A7
:100360001F159F1107309C0083138312D328B001FF
:100370003130AF006D3003178D0000308F00031354
:1003800011210A30C800A420C6013130C500672100
:100390000430C500FA30C800A420C50BCA2986293C
:1003A000B0013130AF00753003178D0000308F0081
:1003B00003131121C501C6018F29C6013130C500C3
:1003C0006721853090008E018F018E0183160C15F8
:1003D00083122B112B08831687008312071509300F
:1003E0009700C0308B0407309600D0309500F72975
:0203F0006300A8
:02400E003A3F37
:00000001FF
;PIC16F877A
;CRC=68B6  CREATED="24-Apr-22 10:23"
